:100000000C9434000C9446000C9446000C9446006A
:100010000C9446000C9446000C9446000C94460048
:100020000C9446000C9446000C9446000C94460038
:100030000C9446000C9446000C9446000C94460028
:100040000C9448000C9446000C9446000C94460016
:100050000C9446000C9446000C9446000C94460008
:100060000C9446000C94460011241FBECFEFD8E03C
:10007000DEBFCDBF21E0A0E0B1E001C01D92A930FC
:10008000B207E1F70E9492000C94FB000C94000070
:100090001F920F920FB60F9211242F933F938F93BD
:1000A0009F93AF93BF938091050190910601A0911A
:1000B0000701B09108013091040123E0230F2D378F
:1000C00058F50196A11DB11D2093040180930501EF
:1000D00090930601A0930701B0930801809100015D
:1000E00090910101A0910201B09103010196A11D1F
:1000F000B11D8093000190930101A0930201B09380
:100100000301BF91AF919F918F913F912F910F90DC
:100110000FBE0F901F90189526E8230F0296A11D81
:10012000B11DD2CF789484B5826084BD84B58160DE
:1001300084BD85B5826085BD85B5816085BD8091B2
:100140006E00816080936E0010928100809181002A
:100150008260809381008091810081608093810022
:10016000809180008160809380008091B1008460E4
:100170008093B1008091B00081608093B000809145
:100180007A00846080937A0080917A008260809304
:100190007A0080917A00816080937A0080917A0061
:1001A000806880937A001092C100259A16BC109244
:1001B0008000809180008260809380008091800028
:1001C000806880938000809181008B6180938100A2
:1001D00081EE94E090938700809386008FEC91E00D
:1001E0009093890080938800C0E0D0E02097F1F3DD
:0A01F0000E940000FBCFF894FFCF3F
:00000001FF
100200009100826080939100809191008160809341
:100210009100809190008160809390008091A10076
:1002200082608093A1008091A10081608093A100F1
:100230008091A00081608093A00080912101826064
:10024000809321018091210181608093210180911F
:10025000200181608093200180917A0084608093E6
:100260007A0080917A00826080937A0080917A008F
:10027000816080937A0080917A00806880937A0010
:100280001092C100259A16BC1092800080918000C7
:1002900082608093800080918000806880938000DD
:1002A00010928100809181008961809381008AE5AC
:1002B00097E0909387008093860084E690E0909387
:1002C000890080938800C0E0D0E02097F1F30E947D
:0802D0000000FBCFF894FFCF02
:00000001FF
